:1000000004308A00CE2C0000FF00030E8301A10003
:100010000A08A0008A010408A2007708A300780853
:10002000A4007908A5007A08A60003170D08031399
:10003000A70003170F080313A80003170C080313E6
:10004000A90003170E080313AA00831383120B1EC3
:100050002B288B184C28220884002308F70024083A
:10006000F8002508F9002608FA00270803178D0074
:100070000313280803178F000313290803178C00A4
:1000800003132A0803178E00031320088A00210E89
:100090008300FF0E7F0E09008A110A12A7290B08A0
:1000A000C0008B13831603178C170C14000000007C
:1000B00083120313C01B8B1703170C087F39031916
:1000C000A5280313C00003170D080313C10003176D
:1000D0000F080313C20040080C1E6C289900410849
:1000E00003178D000313420803178F0003130B0837
:1000F000C3008B13831603178C170C140000000029
:1001000083120313C31B8B1703170C0D0E0D7F39BE
:100110000319A5280313C00003170D080313C1001A
:1001200003170F080313C20040080C1E95289900FE
:10013000410803178D000313420803178F008D0A2F
:1001400003198F0A03134F2803170313080083169C
:1001500006148312061CB128AC18B1280230F8002E
:100160003629BA103A0883168700831287101308BD
:10017000273093008316140C031CBB28831213082A
:10018000C2001308703093008316140C031CC5289A
:100190008312BA103A088316870083128714421B11
:1001A000D628AC18D6280330F8003629BA103A08F9
:1001B000831687008312871013086130930083161B
:1001C000140C031CE0288312130893018316140CEB
:1001D000031CE72883121308B00013089301831649
:1001E000140C031CF02883121308B900C001400846
:1001F000073C031C0A29313040078400831313088D
:1002000093018316140C031C022983121308800027
:10021000C00AF728BA103A08831687008312871499
:10022000BA103A0883168700831287101308173014
:1002300093008316140C031C1A29831213089301CC
:100240008316140C031C212983121308C100BA1051
:100250003A08831687008312871441183329AC1497
:100260000130F8003629AC100030F80008004708CB
:10027000F801460203183F294608F7004B29F70109
:100280000830C800C60DF70D470877020318F700BD
:10029000F80DC80B422908002030411E3030C20042
:1002A0004008F700C01F5C29F709F70A7708C0006B
:1002B0002D30C200C11741144008C6006430C70089
:1002C00037217708C00030307807C3004008C600E7
:1002D0000A30C700372130307707C5003030780743
:1002E000C4004208F7003030430203197B29C114CF
:1002F000C11B41158F294208C3002030C200303095
:100300004402031987294114C11BC1148F29031DFD
:100310004114031D8F294308C4002030C300411934
:100320009629C1189A2941189E29A22942080C1E13
:100330009729990043080C1E9B29990044080C1E1C
:100340009F29990045080C1EA329990008005930DF
:1003500003178D0002308F0003134F20A720780869
:10036000BF000A300C1EB229990020300C1EB6299D
:1003700099003F08C0001830C1004C21BF08031984
:10038000C3293F0B552A310885000A300C1EC629A7
:10039000990020300C1ECA29990005080C1ECE2990
:1003A00099000A300C1ED229990020300C1ED62943
:1003B000990032080C1EDA2999000A300C1EDE2939
:1003C000990020300C1EE229990033080C1EE62902
:1003D00099000A300C1EEA29990020300C1EEE29E3
:1003E00099003408C0001830C1004C210A300C1E9E
:1003F000F729990020300C1EFB2999003408C00011
:100400001B30C1004008C6006430C70037217708A0
:10041000C00078083030031D142AC11C1C2AC119E1
:100420001C2A411A2030172AC11141124114F80721
:1004300078080C1E192A99004008C6000A30C70027
:1004400037217708C00078083030031D2D2AC119E4
:10045000322A411C322A411A2030F80778080C1E33
:100460002F2A99003030C00740080C1E352A990009
:100470005C3003178D0002308F0003134F20A7203C
:100480007808BF000A300C1E432A990020300C1E49
:10049000472A99003F08C0001830C1004C21BF080E
:1004A0000319C3293F0B552AC3298B108A110A123D
:1004B0002B280A10B13272000A1032326F00E33773
:1004C0006E33E93375396132EF10200500003C309E
:1004D00084008313000803197B2A0530F800F70114
:1004E000F70B702AF80B6F2A2E30F700F70B762ADD
:1004F000792A800B6D2A08000B138B138B1B7D2A26
:100500000B16831601130614C03083128B048A1154
:100510000A12252D8316871107168712831294124B
:10052000BA123A088316870083123A163A088316DD
:1005300087008312BA113A0883168700203083128D
:100540009400C0308316940083128A110A12262D5B
:10055000831687100614071183123A113A0883167E
:10056000870083120711BA103A0883168700831296
:1005700087101308303093008316140C031CBD2A17
:1005800083121308FF3093008316140C031CC52A32
:1005900083121308C23093008316140C031CCD2A57
:1005A00083121308C23093008316140C031CD52A3F
:1005B00083121308C23093008316140C031CDD2A27
:1005C00083121308C23093008316140C031CE52A0F
:1005D0008312BA103A088316870083128714BA1060
:1005E0003A08831687008312871013082A30930075
:1005F0008316140C031CF92A83121308FF3093008E
:100600008316140C031C012B83121308C2309300B1
:100610008316140C031C092B83121308C230930099
:100620008316140C031C112B83121308C230930081
:100630008316140C031C192B83121308C230930069
:100640008316140C031C212B8312BA103A0883164C
:10065000870083128714BA103A0883168700831222
:10066000871013082B3093008316140C031C352BB2
:1006700083123C0893008316140C031C3C2B83123A
:100680001308C23093008316140C031C442B8312EE
:100690001308C23093008316140C031C4C2B8312D6
:1006A0001308C23093008316140C031C542B8312BE
:1006B0001308C23093008316140C031C5C2B8312A6
:1006C000BA103A088316870083128714BA103A08C2
:1006D000831687008312871013082C30930083162B
:1006E000140C031C702B8312130893018316140C33
:1006F000031C772B8312BA103A08831687008312E3
:100700008714BA103A0883168700831287101308DB
:10071000213093008316140C031C8B2B83121308B7
:10072000073093008316140C031C932B8312BA100A
:100730003A088316870083128714BA103A08831682
:100740008700831287101308223093008316140C3D
:10075000031CA72B83121308073093008316140C75
:10076000031CAF2B8312BA103A088316870083123A
:100770008714BA103A08831687008312871013086B
:10078000233093008316140C031CC32B831213080D
:10079000033093008316140C031CCB2B8312BA1066
:1007A0003A088316870083128714BA103A08831612
:1007B0008700831287101308243093008316140CCB
:1007C000031CDF2B831213080A3093008316140CCA
:1007D000031CE72B8312BA103A0883168700831292
:1007E0008714BA103A0883168700831287101308FB
:1007F000253093008316140C031CFB2B83123B083B
:1008000093008316140C031C022C8312BA103A08AE
:100810008316870083128714BA103A08831687005C
:10082000831287101308263093008316140C031CC0
:10083000162C83121308073093008316140C031C24
:100840001E2C8312BA103A0883168700831287146D
:10085000BA103A08831687008312871013082730CE
:1008600093008316140C031C322C8312130870306F
:1008700093008316140C031C3A2C8312BA103A0806
:100880008316870083128714BA103A0883168700EC
:10089000831287101308313093008316140C031C45
:1008A0004E2C83121308013093008316140C031C82
:1008B000562C8312BA103A088316870083128714C5
:1008C000BA103A0883168700831287101308323053
:1008D00093008316140C031C6A2C831213080A302D
:1008E00093008316140C031C722C8312BA103A085E
:1008F0008316870083128714BA103A08831687007C
:10090000831287101308333093008316140C031CD2
:10091000862C831213080A3093008316140C031CD0
:100920008E2C8312BA103A0883168700831287141C
:100930008A110A122B2D3A113A0883168700831266
:100940000711BA103A08831687008312871013081C
:10095000203093008316140C031CAB2C8312130855
:100960000F3093008316140C031CB32C8312BA109F
:100970003A0883168700831287140230BC0067226E
:100980003A113A088316870083120715C730F7001B
:10099000F70BC82CCB2C8A110A122C2D03081F39F7
:1009A0008300AC10AF01B001FF30BA0019308316DC
:1009B0009900A230980090308312980083161F147B
:1009C0009F141F159F1107309C00831383122C1056
:1009D000AD01AE01B101B201B301B401B501B6017F
:1009E000B701B801B901831686108312861004304E
:1009F000BB00FA30BC006722BB0BF92C83168610B3
:100A0000831286140430BB00FA30BC006722BB0B93
:100A1000042D83168610831286100430BB00FA3032
:100A2000BC006722BB0B0F2D831686108312861421
:100A30000430BB00FA30BC006722BB0B1A2D00301B
:100A400083168500831285017C2A8A2A4030BB00E8
:100A50000830BC00A82A9B2C5F3003178D000230A1
:100A60008F000313AB018B1BAB178B134F20AB1BFA
:060A70008B17392D630015
:02400E003A3F37
:00000001FF
;PIC16F877A
;CRC=66C5  CREATED="19-mar-17 20:00"
