:1000000004308A00222C0000FF00030E8301A100AF
:100010000A08A0008A010408A2007708A300780853
:10002000A4007908A5007A08A60003170D08031399
:10003000A70003170F080313A80003170C080313E6
:10004000A90003170E080313AA00831383120B1EC3
:100050002B288B184C28220884002308F70024083A
:10006000F8002508F9002608FA00270803178D0074
:100070000313280803178F000313290803178C00A4
:1000800003132A0803178E00031320088A00210E89
:100090008300FF0E7F0E09008A110A12F4288316CE
:1000A00006148312061C5928AB1859280230F80090
:1000B000DE28B910390883168700831287101308C9
:1000C000273093008316140C031C63288312130833
:1000D000C1001308703093008316140C031C6D28A4
:1000E0008312B91039088316870083128714411BC5
:1000F0007E28AB187E280330F800DE28B9103908B6
:1001000083168700831287101308613093008316CB
:10011000140C031C88288312130893018316140CF3
:10012000031C8F2883121308AF0013089301831652
:10013000140C031C982883121308B800BF013F0851
:10014000073C031CB22830303F0784008313130898
:1001500093018316140C031CAA2883121308800031
:10016000BF0A9F28B91039088316870083128714A5
:10017000B9103908831687008312871013081730C7
:1001800093008316140C031CC228831213089301D6
:100190008316140C031CC92883121308C000B9105D
:1001A000390883168700831287144018DB28AB14A4
:1001B0000130F800DE28AB100030F80008004208DB
:1001C000F80141020318E7284108F700F328F70176
:1001D0000830C300C10DF70D420877020318F7007D
:1001E000F80DC30BEA2808004F207808BE00BE08AF
:1001F0000319FC283E0B5529300885000A300C1ED7
:10020000FF28990020300C1E0329990032080C1E8B
:10021000072999000A300C1E0B29990020300C1E6A
:100220000F2999003308BF001B30C0003F08C100F0
:100230006430C200DF207708BF0078083030031D2B
:100240002829C01C3029C0193029401A20302B29F8
:10025000C01140124014F80778080C1E2D2999008F
:100260003F08C1000A30C200DF207708BF007808CD
:100270003030031D4129C0194629401C4629401A27
:100280002030F80778080C1E432999003030BF074A
:100290003F080C1E492999004F207808BE00BE086F
:1002A0000319FC283E0B5529FC288B108A110A12D1
:1002B0002B28E3376E33E93375396132EF102005AF
:1002C00000003B30840083130008031975290530B2
:1002D000F800F701F70B6A29F80B69292E30F700AF
:1002E000F70B70297329800B672908000B138B13F8
:1002F0008B1B77290B16831601130614C03083124B
:100300008B048A110A12912C831687110716871203
:1003100083129412B9123908831687008312391692
:100320003908831687008312B911390883168700AC
:10033000203083129400C0308316940083128A11F7
:100340000A12922C83168710061407118312391192
:1003500039088316870083120711B91039088316EC
:100360008700831287101308303093008316140C13
:10037000031CB72983121308FF3093008316140C53
:10038000031CBF2983121308C23093008316140C78
:10039000031CC72983121308C23093008316140C60
:1003A000031CCF2983121308C23093008316140C48
:1003B000031CD72983121308C23093008316140C30
:1003C000031CDF298312B9103908831687008312B2
:1003D0008714B91039088316870083128710130811
:1003E0002A3093008316140C031CF329831213087C
:1003F000FF3093008316140C031CFB29831213088F
:10040000C23093008316140C031C032A83121308B2
:10041000C23093008316140C031C0B2A831213089A
:10042000C23093008316140C031C132A8312130882
:10043000C23093008316140C031C1B2A8312B910BC
:1004400039088316870083128714B9103908831678
:1004500087008312871013082B3093008316140C27
:10046000031C2F2A83123B0893008316140C031CD1
:10047000362A83121308C23093008316140C031C0F
:100480003E2A83121308C23093008316140C031CF7
:10049000462A83121308C23093008316140C031CDF
:1004A0004E2A83121308C23093008316140C031CC7
:1004B000562A8312B91039088316870083128714CD
:1004C000B9103908831687008312871013082C305F
:1004D00093008316140C031C6A2A831213089301D9
:1004E0008316140C031C712A8312B9103908831661
:1004F000870083128714B910390883168700831286
:1005000087101308213093008316140C031C852ACE
:1005100083121308073093008316140C031C8D2AD2
:100520008312B91039088316870083128714B91013
:10053000390883168700831287101308223093002E
:100540008316140C031CA12A83121308073093008E
:100550008316140C031CA92A8312B91039088316B8
:10056000870083128714B910390883168700831215
:1005700087101308233093008316140C031CBD2A24
:1005800083121308033093008316140C031CC52A2E
:100590008312B91039088316870083128714B910A3
:1005A00039088316870083128710130824309300BC
:1005B0008316140C031CD92A831213080A309300E3
:1005C0008316140C031CE12A8312B9103908831610
:1005D000870083128714B9103908831687008312A5
:1005E00087101308253093008316140C031CF52A7A
:1005F00083123A0893008316140C031CFC2A8312FE
:10060000B91039088316870083128714B910390886
:1006100083168700831287101308263093008316F1
:10062000140C031C102B8312130821309300831623
:10063000140C031C182B8312B91039088316870079
:1006400083128714B9103908831687008312871024
:100650001308273093008316140C031C2C2B8312D1
:100660001308703093008316140C031C342B831270
:10067000B91039088316870083128714B910390816
:100680008316870083128710130831309300831676
:10069000140C031C482B831213080130930083169B
:1006A000140C031C502B8312B910390883168700D1
:1006B00083128714B91039088316870083128710B4
:1006C0001308323093008316140C031C642B83121E
:1006D00013080A3093008316140C031C6C2B83122E
:1006E000B91039088316870083128714B9103908A6
:1006F0008316870083128710130833309300831604
:10070000140C031C802B831213080A3093008316E9
:10071000140C031C882B8312B91039088316870028
:10072000831287148A110A12972C391139088316FB
:10073000870083120711B9103908831687008312C6
:1007400087101308203093008316140C031CA52B6C
:10075000831213080F3093008316140C031CAD2B67
:100760008312B91039088316870083128714023068
:10077000BB006121391139088316870083120715E0
:10078000C730F700F70BC22BC52B8A110A12982C21
:100790000B08BA008B13831603178C170C14000078
:1007A000000083120313BA1B8B1703170C087F3941
:1007B00003191E2C0313BA0003170D080313BB0003
:1007C00003170F080313BC003A080C1EE52B990011
:1007D0003B0803178D0003133C0803178F00031316
:1007E0000B08BD008B13831603178C170C14000025
:1007F000000083120313BD1B8B1703170C0D0E0D86
:100800007F3903191E2C0313BA0003170D080313B5
:10081000BB0003170F080313BC003A080C1E0E2C74
:1008200099003B0803178D0003133C0803178F0042
:100830008D0A03198F0A0313C82B031703138A1198
:100840000A129F2C03081F398300AB10AE01AF01C1
:10085000FF30B900831603178715A03003139900E2
:1008600001309A00A63098009030831298008316C9
:1008700003170908C039890003131F129F120030A3
:1008800003178800831287018801890183130313EA
:100890002B10AC01AD01B001B101B201B301B40143
:1008A000B501B601B701B801831686108312861010
:1008B0000430BA00FA30BB006121BA0B5A2C8316FF
:1008C0008610831286140430BA00FA30BB0061210E
:1008D000BA0B652C83168610831286100430BA007A
:1008E000FA30BB006121BA0B702C8316861083127C
:1008F00086140430BA00FA30BB006121BA0B7B2C9D
:1009000083168610831286100430BA00FA30BB00BA
:100910006121BA0B862C0030831685008312850175
:10092000762984294030BA000830BB00A229952BD3
:10093000593003178D0001308F000313C82B9F2CF3
:02094000630052
:04400E00F22CFF3F52
:00000001FF
;PIC16F886
;CRC=37F8  CREATED="02-abr-17 13:36"
