:1000000003308A00CB2B0000FF00030E8301A10008
:100010000A08A0008A010408A2007708A300780853
:10002000A4007908A5007A08A60003170D08031399
:10003000A70003170F080313A80003170C080313E6
:10004000A90003170E080313AA00831383120B1EC3
:100050002B288B184C28220884002308F70024083A
:10006000F8002508F9002608FA00270803178D0074
:100070000313280803178F000313290803178C00A4
:1000800003132A0803178E00031320088A00210E89
:100090008300FF0E7F0E09008A110A12DF288316E3
:1000A00006148312061C5928AB1859280230F80090
:1000B000DE28B910390883168700831287101308C9
:1000C000273093008316140C031C63288312130833
:1000D000C3001308703093008316140C031C6D28A2
:1000E0008312B91039088316870083128714431BC3
:1000F0007E28AB187E280330F800DE28B9103908B6
:1001000083168700831287101308613093008316CB
:10011000140C031C88288312130893018316140CF3
:10012000031C8F2883121308AF0013089301831652
:10013000140C031C982883121308B800C10141084D
:10014000073C031CB2283030410784008313130896
:1001500093018316140C031CAA2883121308800031
:10016000C10A9F28B91039088316870083128714A3
:10017000B9103908831687008312871013081730C7
:1001800093008316140C031CC228831213089301D6
:100190008316140C031CC92883121308C200B9105B
:1001A000390883168700831287144218DB28AB14A2
:1001B0000130F800DE28AB100030F80008004F20B6
:1001C0007808C000C0080319E728400BFE28300853
:1001D00085000A300C1EEA28990020300C1EEE28FB
:1001E000990032080C1EF22899004F207808C000B0
:1001F000C0080319E728400BFE28E7288B108A1156
:100200000A122B28E3376E33E93375396132EF1068
:10021000200500003D3084008313000803191E29C7
:100220000530F800F701F70B1329F80B12292E30CF
:10023000F700F70B19291C29800B102908000B1354
:100240008B138B1B20290B16831601130614C03049
:1002500083128B048A110A12312C83168711071618
:10026000871283129412B9123908831687008312F9
:1002700039163908831687008312B9113908831695
:100280008700203083129400C030831694008312BC
:100290008A110A12322C8316871006140711831252
:1002A000391139088316870083120711B9103908EC
:1002B000831687008312871013083030930083164B
:1002C000140C031C602983121308FF30930083165B
:1002D000140C031C682983121308C2309300831680
:1002E000140C031C702983121308C2309300831668
:1002F000140C031C782983121308C2309300831650
:10030000140C031C802983121308C2309300831637
:10031000140C031C88298312B9103908831687002E
:1003200083128714B9103908831687008312871047
:1003300013082A3093008316140C031C9C29831283
:100340001308FF3093008316140C031CA429831296
:100350001308C23093008316140C031CAC298312BB
:100360001308C23093008316140C031CB4298312A3
:100370001308C23093008316140C031CBC2983128B
:100380001308C23093008316140C031CC429831273
:10039000B91039088316870083128714B9103908F9
:1003A000831687008312871013082B30930083165F
:1003B000140C031CD82983123D0893008316140CD7
:1003C000031CDF2983121308C23093008316140C18
:1003D000031CE72983121308C23093008316140C00
:1003E000031CEF2983121308C23093008316140CE8
:1003F000031CF72983121308C23093008316140CD0
:10040000031CFF298312B910390883168700831251
:100410008714B910390883168700831287101308D0
:100420002C3093008316140C031C132A8312130818
:1004300093018316140C031C1A2A8312B91039086D
:100440008316870083128714B91039088316870032
:10045000831287101308213093008316140C031C99
:100460002E2A83121308073093008316140C031CE2
:10047000362A8312B910390883168700831287142D
:10048000B9103908831687008312871013082230A9
:1004900093008316140C031C4A2A83121308073096
:1004A00093008316140C031C522A8312B9103908C6
:1004B0008316870083128714B910390883168700C2
:1004C000831287101308233093008316140C031C27
:1004D000662A83121308033093008316140C031C3E
:1004E0006E2A8312B9103908831687008312871485
:1004F000B910390883168700831287101308243037
:1005000093008316140C031C822A831213080A30EA
:1005100093008316140C031C8A2A8312B91039081D
:100520008316870083128714B91039088316870051
:10053000831287101308253093008316140C031CB4
:100540009E2A83123C0893008316140C031CA52AD0
:100550008312B91039088316870083128714B910E3
:1005600039088316870083128710130826309300FA
:100570008316140C031CB92A831213080730930046
:100580008316140C031CC12A8312B9103908831670
:10059000870083128714B9103908831687008312E5
:1005A00087101308273093008316140C031CD52AD8
:1005B00083121308703093008316140C031CDD2A79
:1005C0008312B91039088316870083128714B91073
:1005D000390883168700831287101308313093007F
:1005E0008316140C031CF12A8312130801309300A4
:1005F0008316140C031CF92A8312B91039088316C8
:10060000870083128714B910390883168700831274
:1006100087101308323093008316140C031C0D2B23
:10062000831213080A3093008316140C031C152B35
:100630008312B91039088316870083128714B91002
:10064000390883168700831287101308333093000C
:100650008316140C031C292B831213080A309300F1
:100660008316140C031C312B8312B910390883161E
:100670008700831287148A110A12372C391139081E
:100680008316870083120711B91039088316870073
:10069000831287101308203093008316140C031C58
:1006A0004E2B831213080F3093008316140C031C77
:1006B000562B8312B91039088316870083128714CA
:1006C0000230BD000A2139113908831687008312D0
:1006D0000715C730F700F70B6B2B6E2B8A110A1228
:1006E000382C0B08BC008B13831603178C170C14C3
:1006F0000000000083120313BC1B8B1703170C08A8
:100700007F390319C72B0313BC0003170D0803130C
:10071000BD0003170F080313BE003C080C1E8E2BF0
:1007200099003D0803178D0003133E0803178F003F
:1007300003130B08BF008B13831603178C170C14BD
:100740000000000083120313BF1B8B1703170C0D4F
:100750000E0D7F390319C72B0313BC0003170D08B7
:100760000313BD0003170F080313BE003C080C1E43
:10077000B72B99003D0803178D0003133E0803179C
:100780008F008D0A03198F0A0313712B03170313AC
:100790008A110A123F2C03081F398300AB10AE01E7
:1007A000AF01FF30B900831603178715A03003137C
:1007B000990001309A00A63098009030831298007A
:1007C000BB01BA01831603170908C0398900031356
:1007D0001F129F12003003178800831287018801BF
:1007E0008901831303132B10AC01AD01B001B101DA
:1007F000B201B301B401B501B601B701B801831666
:100800008610831286100430BC00FA30BD000A2125
:10081000BC0B052C83168610831286140430BC0092
:10082000FA30BD000A21BC0B102C831686108312EF
:1008300086100430BC00FA30BD000A21BC0B1B2C12
:1008400083168610831286140430BC00FA30BD0073
:100850000A21BC0B262C00308316850083128501EB
:100860001F292D294030BC000830BD004B293E2BEC
:10087000023003178D0001308F000313712B3F2CC2
:02088000630013
:04400E00F22CFF3F52
:00000001FF
;PIC16F886
;CRC=9223  CREATED="30-Mar-17 18:26"
