:1000000006308A00392E0000FF00030E8301A10094
:100010000A08A0008A010408A2007708A300780853
:10002000A4007908A5007A08A60003170D08031399
:10003000A70003170F080313A80003170C080313E6
:10004000A90003170E080313AA00831383120B1EC3
:100050002B288B184C28220884002308F70024083A
:10006000F8002508F9002608FA00270803178D0074
:100070000313280803178F000313290803178C00A4
:1000800003132A0803178E00031320088A00210E89
:100090008300FF0E7F0E09008A110A12DF288316E3
:1000A00006148312061C5928AB1859280230F80090
:1000B000DE28B910390883168700831287101308C9
:1000C000273093008316140C031C63288312130833
:1000D000C7001308703093008316140C031C6D289E
:1000E0008312B91039088316870083128714471BBF
:1000F0007E28AB187E280330F800DE28B9103908B6
:1001000083168700831287101308613093008316CB
:10011000140C031C88288312130893018316140CF3
:10012000031C8F2883121308AF0013089301831652
:10013000140C031C982883121308B800C501450845
:10014000073C031CB2283030450784008313130892
:1001500093018316140C031CAA2883121308800031
:10016000C50A9F28B910390883168700831287149F
:10017000B9103908831687008312871013081730C7
:1001800093008316140C031CC228831213089301D6
:100190008316140C031CC92883121308C600B91057
:1001A000390883168700831287144618DB28AB149E
:1001B0000130F800DE28AB100030F80008004F20B6
:1001C0007808C400C4080319E728440BF0284F201E
:1001D0007808C400C4080319E728440BF028E7286E
:1001E0008B108A110A122B28E3376E33E9337539E5
:1001F0006132EF10200500004537F6346132EF1010
:10020000200500013C3084008313000803191629DF
:100210000530F800F701F70B0B29F80B0A292E30EF
:10022000F700F70B11291429800B082908000B137C
:100230008B138B1B18290B16831601130614C03061
:1002400083128B048A110A129E2E831687110716B9
:10025000871283129412B912390883168700831209
:1002600039163908831687008312B91139088316A5
:100270008700203083129400C030831694008312CC
:100280008A110A129F2E83168710061407118312F3
:10029000391139088316870083120711B9103908FC
:1002A000831687008312871013083030930083165B
:1002B000140C031C582983121308FF309300831673
:1002C000140C031C602983121308C2309300831698
:1002D000140C031C682983121308C2309300831680
:1002E000140C031C702983121308C2309300831668
:1002F000140C031C782983121308C2309300831650
:10030000140C031C80298312B91039088316870046
:1003100083128714B9103908831687008312871057
:1003200013082A3093008316140C031C942983129B
:100330001308FF3093008316140C031C9C298312AE
:100340001308C23093008316140C031CA4298312D3
:100350001308C23093008316140C031CAC298312BB
:100360001308C23093008316140C031CB4298312A3
:100370001308C23093008316140C031CBC2983128B
:10038000B91039088316870083128714B910390809
:10039000831687008312871013082B30930083166F
:1003A000140C031CD02983123C0893008316140CF0
:1003B000031CD72983121308C23093008316140C30
:1003C000031CDF2983121308C23093008316140C18
:1003D000031CE72983121308C23093008316140C00
:1003E000031CEF2983121308C23093008316140CE8
:1003F000031CF7298312B91039088316870083126A
:100400008714B910390883168700831287101308E0
:100410002C3093008316140C031C0B2A8312130830
:1004200093018316140C031C122A8312B910390885
:100430008316870083128714B91039088316870042
:10044000831287101308213093008316140C031CA9
:10045000262A83121308073093008316140C031CFA
:100460002E2A8312B9103908831687008312871445
:10047000B9103908831687008312871013082230B9
:1004800093008316140C031C422A831213080730AE
:1004900093008316140C031C4A2A8312B9103908DE
:1004A0008316870083128714B910390883168700D2
:1004B000831287101308233093008316140C031C37
:1004C0005E2A83121308033093008316140C031C56
:1004D000662A8312B910390883168700831287149D
:1004E000B910390883168700831287101308243047
:1004F00093008316140C031C7A2A831213080A3003
:1005000093008316140C031C822A8312B910390835
:100510008316870083128714B91039088316870061
:10052000831287101308253093008316140C031CC4
:10053000962A83123B0893008316140C031C9D2AF1
:100540008312B91039088316870083128714B910F3
:10055000390883168700831287101308263093000A
:100560008316140C031CB12A83121308073093005E
:100570008316140C031CB92A8312B9103908831688
:10058000870083128714B9103908831687008312F5
:1005900087101308273093008316140C031CCD2AF0
:1005A00083121308703093008316140C031CD52A91
:1005B0008312B91039088316870083128714B91083
:1005C000390883168700831287101308313093008F
:1005D0008316140C031CE92A8312130801309300BC
:1005E0008316140C031CF12A8312B91039088316E0
:1005F000870083128714B910390883168700831285
:1006000087101308323093008316140C031C052B3B
:10061000831213080A3093008316140C031C0D2B4D
:100620008312B91039088316870083128714B91012
:10063000390883168700831287101308333093001C
:100640008316140C031C212B831213080A30930009
:100650008316140C031C292B8312B9103908831636
:100660008700831287148A110A12A42E39113908BF
:100670008316870083120711B91039088316870083
:10068000831287101308203093008316140C031C68
:10069000462B831213080F3093008316140C031C8F
:1006A0004E2B8312B91039088316870083128714E2
:1006B0000230BC00022139113908831687008312E9
:1006C0000715C730F700F70B632B662B8A110A1248
:1006D000A52E0B08BB008B13831603178C170C1465
:1006E0000000000083120313BB1B8B1703170C08B9
:1006F0007F390319BF2B0313BB0003170D08031326
:10070000BC0003170F080313BD003B080C1E862B0B
:1007100099003C0803178D0003133D0803178F0051
:1007200003130B08BE008B13831603178C170C14CE
:100730000000000083120313BE1B8B1703170C0D60
:100740000E0D7F390319BF2B0313BB0003170D08D0
:100750000313BC0003170F080313BD003B080C1E56
:10076000AF2B99003C0803178D0003133D080317B6
:100770008F008D0A03198F0A0313692B03170313C4
:1007800008008B1FC52B2B14C62B2B100B138B13A0
:100790008B1BC72B39113908831687008312071169
:1007A000B910390883168700831287101308273081
:1007B00093008316140C031CDA2B83121308703079
:1007C00093008316140C031CE22B8312B910390812
:1007D0008316870083128714B9103908831687009F
:1007E000831287101308223093008316140C031C05
:1007F000F62B83121308013093008316140C031C8C
:10080000FE2B8312B91039088316870083128714D0
:10081000B910390883168700831287101308303007
:1008200093008316140C031C122C831238089300B7
:100830008316140C031C192C83121308C230930066
:100840008316140C031C212C83121308C23093004E
:100850008316140C031C292C83121308C230930036
:100860008316140C031C312C83121308C23093001E
:100870008316140C031C392C8312B9103908831603
:10088000870083128714B9103908831687008312F2
:10089000871013082A3093008316140C031C4D2C68
:1008A0008312380893008316140C031C542C8312F3
:1008B0001308C23093008316140C031C5C2C8312A3
:1008C0001308C23093008316140C031C642C83128B
:1008D0001308C23093008316140C031C6C2C831273
:1008E0001308C23093008316140C031C742C83125B
:1008F000B91039088316870083128714B910390894
:10090000831687008312871013080B309300831619
:10091000140C031C882C8312130893018316140CE7
:10092000031C8F2C83121308B8001308930183163D
:10093000140C031C982C8312130893018316140CB7
:10094000031C9F2C8312130893018316140C031CA1
:10095000A62C8312130893018316140C031CAD2CD0
:100960008312B91039088316870083128714B910CF
:10097000390883168700831287101308A03093006C
:100980008316140C031CC12C8312AE0A2E0893008C
:100990008316140C031CC92C831238089300831689
:1009A000140C031CD02C8312BB013B08073C031C16
:1009B000E82C30303B07840083130008BD003D085D
:1009C00093008316140C031CE22C8312BB0AD52C53
:1009D000B91039088316870083128714B9103908B3
:1009E0008316870083128710130820309300831624
:1009F000140C031CF82C831213080E30930083167A
:100A0000140C031C002D8312B910390883168700BB
:100A1000831287143911390883168700831207154A
:100A20001330F700F70B122D152D391139088316E5
:100A3000870083120711AD01AC01831606148312DF
:100A4000061C2D2DAC0A0319AD0A2C08F43C031D1D
:100A50002C2D2D0B2C2D2D2D1D2DB9103908831665
:100A60008700831287101308273093008316140C15
:100A7000031C372D83121308BC0013087030930039
:100A80008316140C031C412D8312B91039088316E8
:100A9000870083128714B9103908831687008312E0
:100AA00087101308223093008316140C031C552D55
:100AB00083121308073093008316140C031C5D2D5A
:100AC0008312B91039088316870083128714B9106E
:100AD000390883168700831287101308E1309300CA
:100AE0008316140C031C712D8312B9103908831658
:100AF000870083128714B910390883168700831280
:100B000087101308203093008316140C031C852DC6
:100B1000831213080F3093008316140C031C8D2DC1
:100B20008312B9103908831687008312871439118C
:100B300039088316870083120715C730F700F70BB3
:100B40009F2DA22D2C08F43C031DB02D2D0BB02D94
:100B50002B1CAC2DC0308B048B100230F800C42D40
:100B60003C1ABD2DBC1EBD2D2B1CB82DC0308B04D6
:100B70008B100030F800C42DC42D2B1CC12DC030AB
:100B80008B048B100130F8008A110A12C02E420823
:100B9000F80141020318CF2D4108F700DB2DF701C2
:100BA0000830C300C10DF70D420877020318F700A3
:100BB000F80DC30BD22D080020303C1E3030BD0094
:100BC0003B08F700BB1FEC2DF709F70A7708BB00BD
:100BD0002D30BD00BC173C143B08C1006430C2007E
:100BE000C7257708BB0030307807BE003B08C1003E
:100BF0000A30C200C72530307707C0003030780790
:100C0000BF003D08F70030303E0203190B2EBC1424
:100C1000BC1B3C151F2E3D08BE002030BD003030EF
:100C20003F020319172E3C14BC1BBC141F2E031DBE
:100C30003C14031D1F2E3E08BF002030BE003C198F
:100C4000262EBC182A2E3C182E2E322E3D080C1EA5
:100C5000272E99003E080C1E2B2E99003F080C1ED3
:100C60002F2E990040080C1E332E99008A110A126B
:100C7000D52E03081F398300AB10AE01AF01FF3042
:100C8000B900193083169900A23098009030831271
:100C9000980083161F149F141F159F1107309C0086
:100CA000831383122B10AC01AD01B001B101B2016D
:100CB000B301B401B501B601B701B80183161F1025
:100CC0009F141F159F151F1383121F179F1783163D
:100CD0009F1783121F140030F8001F08C7397804CB
:100CE0009F0083160611831206110430BB00FA30F0
:100CF000BC000221BB0B772E83160611831206154A
:100D00000430BB00FA30BC000221BB0B822E8316DC
:100D10000611831206110430BB00FA30BC00022118
:100D2000BB0B8D2E83160611831206150430BB00F3
:100D3000FA30BC000221BB0B982E17292529403020
:100D4000BB000130BC004329362BF43003178D0063
:100D500000308F00031369233F3083168500613014
:100D60008312B0001F151F19B32E83161E0883129D
:100D7000B3006230B1006330B2000830B800C12B5C
:100D80007808BA000430BB00FA30BC000221BB0B6B
:100D9000C42EFC3003178D0000308F00031369232D
:100DA0003A08BB001830BC00DC2D8316AF2E630060
:02400E00323F3F
:00000001FF
;PIC16F877A
;CRC=D4F2  CREATED="19-mar-17 19:54"
