:1000000000308A007B280000C8326C366F10F7374A
:100010007236E410200500002230840083130008AB
:10002000031920280530F800F701F70B1528F80B05
:1000300014282E30F700F70B1B281E28800B1228DF
:1000400008000B08A1008B13831603178C170C14E0
:100050000000000083120313A11B8B1703170C0869
:100060007F39031977280313A10003170D08031321
:10007000A20003170F080313A30021080C1E3E283B
:100080009900220803178D000313230803178F001C
:1000900003130B08A4008B13831603178C170C147F
:1000A0000000000083120313A41B8B1703170C0D11
:1000B0000E0D7F39031977280313A10003170D08CC
:1000C0000313A20003170F080313A30021080C1E3B
:1000D00067289900220803178D00031323080317CC
:1000E0008F008D0A03198F0A0313212803170313A6
:1000F0008A110A12CB2803081F398300193083168E
:100100009900A230980090308312980083161F1433
:100110009F141F159F1107309C0083130610831234
:1001200006100430A100FA30A2000C20A10B932885
:1001300083160610831206140430A100FA30A200C0
:100140000C20A10B9E288316061083120610043083
:10015000A100FA30A2000C20A10BA92883160610DA
:10016000831206140430A100FA30A2000C20A10B67
:10017000B42868300C1EBA2899000430A100FA3067
:10018000A2000C20A10BBF28043003178D00003003
:0A0190008F0003132128B928630033
:02400E003A3F37
:00000001FF
;PIC16F877A
;CRC=3BBC  CREATED="18-mar-17 00:57"
